:100000000C94CA000C942A130C945B130C948C135C
:100010000C94BD130C94EE130C941F140C945014F8
:100020000C9481140C94F4000C94F4000C94F400DF
:100030000C945E160C94F4000C94F4000C94361599
:100040000C94F4000C94F4000C94F4000C94F40060
:100050000C94F4000C94F4000C94F4000C9411151E
:100060000C94F4000C94D8170C94F4000C94F40045
:100070000C94F4000C94F4000C94F4000C94F40030
:100080000C94F4000C94F4000C94F4000C94F40020
:100090000C9419180C94F4000C94F4000C94852D15
:1000A0000C94F4000C94F4000C94F4000C94F40000
:1000B0000C94F4000C94F4000C94F4000C94F400F0
:1000C0000C94F4000C94F4000C94F4000021242708
:1000D0002A2D3033002225282B2E313400202326D0
:1000E000292C2F3205050505030303030101010433
:1000F00004030606060606060606010405010501B8
:1001000003020202020202010202050504040304C2
:1001100004010304070707010208101020408004AF
:1001200008102040020204081020408001028020B4
:100130004004200101020408102001408040800199
:1001400002080408800410040201000008090000ED
:10015000000000000000000000000000000000009F
:10016000000000000000000000000000000000008F
:100170000000000000000000000000000000C408B3
:10018000E019E119962472297D29EF2B222C522C9B
:10019000E52EEC2E11241FBECFEFD1E2DEBFCDBF86
:1001A0001AE0A0E0B2E0ECE2FBE600E00BBF02C028
:1001B00007900D92A436B107D9F716E1A4E6BAE08C
:1001C00001C01D92A838B107E1F711E0C4E9D1E000
:1001D00004C02297FE010E948831CE37D107C9F7AB
:1001E0000E94F9120C9494350C940000AF92BF92C7
:1001F000CF92DF92EF92FF920F931F939B014115D5
:10020000510561F14130510559F00F2EF0E0EF2E0C
:10021000F0E0FF2EF0E00F2FF0E01F2FF02D49C08F
:10022000B901882777FD8095982F0E94FF2F7B01C9
:100230008C012DEB32E546E15DE30E94B33025EC05
:100240003EEF42E050E40E94FB2E5B016C01C801CE
:10025000B70126EF34E246ED55EB1DC0B901882702
:1002600077FD8095982F0E94FF2F7B018C012DEB4D
:1002700032E546E15FE30E94B33025EC3EEF42E019
:1002800050E40E94FB2E5B016C01C801B7012BE317
:1002900035E246ED59EB0E94B330A80197010E9468
:1002A000B3309B01AC01C601B5010E94FC2E7B015D
:1002B0008C01C801B70120E030E046EC52E40E9416
:1002C000AF30181654F40F2EF0E0EF2EF0E0FF2EB2
:1002D000F8EC0F2FF2E41F2FF02DB701C8011F918A
:1002E0000F91FF90EF90DF90CF90BF90AF90089567
:1002F000AF92BF92CF92DF92EF92FF920F931F9334
:10030000FB01142F8081282F30E066E0359527957A
:100310006A95E1F751E0C52ED12CC222D32290E09C
:10032000A0E0B0E08F739070A070B0704427582F99
:10033000692F7A2F8181480F511D611D711D92E037
:10034000440F551F661F771F9A95D1F782818295BA
:10035000869586958370480F511D611D711D3595D9
:1003600027952130310579F481E0C816D104E1F4F4
:100370000F2EF0E0AF2EF0E0BF2EF0E0CF2EF0E435
:10038000DF2EF02D23C0CD2859F40F2EF0E0AF2E34
:10039000F0E0BF2EF0E0CF2EF0ECDF2EF02D16C0F7
:1003A0004F5F5F4F60407040CB01BA010E94FF2F4A
:1003B00020E030E040EC5FE30E94B33020E03FEF0C
:1003C0004FE757E40E94642F5B016C01113009F084
:1003D0004FC0C601B50120E030E44BE754E40E9471
:1003E000B33020E030E44BEF54E40E94B3302AE60F
:1003F0003FE64BE45AE40E94FC2E7B018C01C601CF
:10040000B50120E030E44BEF54E40E94B3309B018F
:10041000AC0160E078E48FE495E40E94FB2E9B0140
:10042000AC01C801B7010E94642F28E431E64AE715
:1004300054E40E94FB2E2EEA3FEF48EA54E40E9467
:10044000642F28EB3EEC4AEB54E40E94B3302FE8D3
:1004500032E049E754E40E94FC2E20E030E04AE715
:1004600054E40E94FB2E26E931E24AE750E40EC034
:100470001123A1F4C601B50120E030EE4BE256E4B1
:100480000E94B33020E030E04AE754E40E94642F39
:100490009B01AC01832F942F752F00C0262F382F7E
:1004A000492F572FB901CA011F910F91FF90EF906B
:1004B000DF90CF90BF90AF900895882777FD80950B
:1004C000982F0E94FF2F20E030E44EE455E40E9474
:1004D000B33020E030EC4FE754E40E94642F2AE967
:1004E00039E949E15FE30E94642F20E030E047E80A
:1004F00053E40E94FC2E20E030E44CE955E40E94D5
:10050000642F2CE53FE842EC5DE30E94FC2E20EED8
:100510003DE240E15CE30E94642F0895EF92FF9278
:100520000F931F93CF93DF93EC017A018B01CB01E3
:10053000BA0120E030E040E85EE30E94602F8823AB
:100540001CF480E190E04EC1C801B70120E030E02A
:1005500040E85EE30E94AF3088236CF0C801B70129
:1005600029E23CE54FE85EE30E94602F88231CF4FB
:1005700084E090E037C1C801B70129E23CE54FE8CB
:100580005EE30E94AF3088236CF0C801B70123E31B
:1005900033E343EB5EE30E94602F88231CF488E082
:1005A00090E020C1C801B70123E333E343EB5EE3EE
:1005B0000E94AF3088236CF0C801B70120E030E022
:1005C00040E05FE30E94602F88231CF480E490E009
:1005D00009C1C801B70120E030E040E05FE30E94BC
:1005E000AF3088236CF0C801B70126E636E646E254
:1005F0005FE30E94602F88231CF480E290E0F2C049
:10060000C801B70126E636E646E25FE30E94AF3056
:1006100088236CF0C801B7012AE939E949E55FE3AD
:100620000E94602F88231CF480E091E0DBC0C801A9
:10063000B7012AE939E949E55FE30E94AF30882331
:100640006CF0C801B7012DEC3CEC4CE85FE30E9474
:10065000602F88231CF480E890E0C4C0C801B70173
:100660002DEC3CEC4CE85FE30E94AF3088236CF04B
:10067000C801B70127ED33EA40EB5FE30E94602F2A
:1006800088231CF481E090E0ADC0C801B70127EDDC
:1006900033EA40EB5FE30E94AF3088236CF0C8017F
:1006A000B7012DEC3CEC4CEC5FE30E94602F8823FB
:1006B0001CF482E090E096C0C801B7012DEC3CEC40
:1006C0004CEC5FE30E94AF3088236CF0C801B701A7
:1006D00028E431EE4AEF5FE30E94602F88231CF488
:1006E00080E094E07FC0C801B70128E431EE4AEF12
:1006F0005FE30E94AF3088236CF0C801B7012AE99C
:1007000039E949E050E40E94602F88231CF480E01E
:1007100092E068C0C801B7012AE939E949E050E42C
:100720000E94AF3088236CF0C801B70126E636E698
:1007300046E150E40E94602F88231CF480E090E49E
:1007400051C0C801B70126E636E646E150E40E94F2
:10075000AF3088236CF0C801B70126E636E646E2E2
:1007600050E40E94602F88231CF4198218823CC038
:10077000C801B70126E636E646E250E40E94AF30F3
:1007800088236CF0C801B70123E333E343E350E46B
:100790000E94602F88231CF480E090E123C0C801F0
:1007A000B70123E333E343E350E40E94AF308823EF
:1007B0006CF0C801B70126E636E646E450E40E9434
:1007C000602F88231CF480E098E00CC0C801B701BA
:1007D00026E636E646E450E40E94AF30882324F053
:1007E00080E090E299838883DF91CF911F910F91F0
:1007F000FF90EF900895882777FD8095982F0E94AD
:10080000FF2F20E030E44EE455E40E94B33020E0B6
:1008100030EC4FE754E40E94642F2AE939E949E1BA
:100820005FE30E94642F20E030E048E454E40E943B
:10083000FB2E20E030E048EF51E40E94642F089541
:10084000882777FD8095982F0E94FF2F20E030E4C5
:100850004EE455E40E94B33020E030EC4FE754E41E
:100860000E94642F20E030E04AEF53E40E94FB2E08
:1008700020E030E040E251E40E94642F0895FC0142
:10088000138A148A158A168A178A108E118E128E70
:10089000138E148E158E168E178E10A211A212A210
:1008A00080E090E0A0E0B0E083A394A3A5A3B6A36A
:1008B0000895262F862F6AE00E941631492F30E0D6
:1008C000C901841B91096AE070E00E942231A4E012
:1008D000660F771FAA95E1F7842F862B0895CF9393
:1008E000DF93EC018D89843009F45FC0853048F4D2
:1008F000823059F1833008F040C0813009F0D2C015
:100900000AC0863009F481C0863008F466C087309A
:1009100009F0C8C092C08DB79EB742970FB6F89441
:100920009EBF0FBE8DBFEDB7FEB73196A896ADB78F
:10093000BEB71296DC93CE931197A89780E092E011
:100940009383828384E292E08FC0ADB7BEB75297A3
:100950000FB6F894BEBF0FBEADBFEDB7FEB7319670
:10096000A8961296DC93CE931197A89780E092E018
:10097000938382838BE292E077C0ADB7BEB7529784
:100980000FB6F894BEBF0FBEADBFEDB7FEB7319640
:10099000A8961296DC93CE931197A89780E092E0E8
:1009A0009383828382E392E05FC0ADB7BEB7529774
:1009B0000FB6F894BEBF0FBEADBFEDB7FEB7319610
:1009C000A8961296DC93CE931197A89780E092E0B8
:1009D000938382838AE392E047C0ADB7BEB7529754
:1009E0000FB6F894BEBF0FBEADBFEDB7FEB73196E0
:1009F000A8961296DC93CE931197A89780E092E088
:100A00009383828384E492E02FC0ADB7BEB7529740
:100A10000FB6F894BEBF0FBEADBFEDB7FEB73196AF
:100A2000A8961296DC93CE931197A89780E092E057
:100A3000938382838DE492E017C0ADB7BEB752971F
:100A40000FB6F894BEBF0FBEADBFEDB7FEB731967F
:100A5000A8961296DC93CE931197A89780E092E027
:100A60009383828384E592E0958384838B89868354
:100A700017828C8980871186898D828713868E895B
:100A8000848715868F8986871786888D808B118A43
:100A90000E94BD328DB79EB742960FB6F8949EBFA6
:100AA0000FBE8DBF9E01285D3F4FC901DF91CF91E1
:100AB0000895DF92EF92FF920F931F938C01D62E31
:100AC00084EAE82E81E1F82EC70168E670E00E9412
:100AD000312CC7016D2D0E945D2C0D0D111DC7011C
:100AE000F80160810E945D2CC7010E94842C1F9137
:100AF0000F91FF90EF90DF9008958091770A8C7F9F
:100B00008093770A88E69AE06FE00E94590508957D
:100B10000F931F93CF93DF93EC0184EA91E168E692
:100B200070E00E94312C84EA91E160E070E00E9464
:100B3000812CCE01688D0E9459048883CE016F8973
:100B40000E9459048983CE016E890E9459048A83C8
:100B50008D898B83CE01698D0E9459048C83CE01CF
:100B60006C890E9459048D83CE016B890E945904BF
:100B70008E8300E010E0FE01E00FF11F84EA91E1B6
:100B800060810E945D2C0F5F1F4F0730110599F7A0
:100B900084EA91E10E94842CDF91CF911F910F9103
:100BA0000895DC01FB0121812053808180533AE0CC
:100BB000839FC0011124280F53962C9353972481AF
:100BC000205383818053839FC0011124280F5496A2
:100BD0002C9354972781205386818053839FC00193
:100BE0001124280F59962C935997228520538185DB
:100BF0008053839FC0011124280F55962C9355973D
:100C00002585205384858053839FC0011124280F9C
:100C100056962C9356972089205387858053839F1F
:100C2000C0011124280F57962C93579723892053DE
:100C300082898053839FC0011124280F58962C93DA
:100C40005897CD010E9488050895CF92DF92EF92C8
:100C5000FF921F93CF93DF937C01162F84EA91E1DB
:100C600068E670E00E94312C84EA91E160E070E077
:100C70000E94812C84EA91E10E94842C84EA91E113
:100C800068E670E042E150E00E94A52CC0E0D0E0B0
:100C9000C12EDD241AE009C184EA91E10E943B2CB7
:100CA000882309F402C184EA91E10E94412C282F93
:100CB000F701EC0FFD1F8083C630D10509F482C017
:100CC000C730D105B8F4C230D10509F44EC0C330E5
:100CD000D10538F4209769F1C130D10509F0E4C09D
:100CE00036C0C430D10509F451C0C530D10508F073
:100CF0005BC049C0CA30D10509F49BC0CB30D105D7
:100D000058F4C830D10509F478C090E02F70C9308C
:100D1000D10508F081C064C0CC30D10509F4A7C06A
:100D2000CC30D10508F494C0CD30D10509F0BCC059
:100D3000ADC090E054E0959587955A95E1F7819F75
:100D4000C00111242F70280FF701208FADC090E053
:100D500044E0959587954A95E1F7819FC00111245C
:100D60002F70280FF701278B9FC090E034E09595F6
:100D700087953A95E1F7819FC00111242F70280FC4
:100D8000F701268B91C0F701858B8EC090E0B4E00F
:100D900095958795BA95E1F7819FC00111242F7031
:100DA000280FF701218F80C090E0A4E095958795EA
:100DB000AA95E1F7819FC00111242F70280FF70138
:100DC000248B72C090E0F4E095958795FA95E1F751
:100DD000819FC00111242F70280FF701238B64C05D
:100DE000E4E095958795EA95E1F78770819FC001CA
:100DF0001124280FF701228F57C090E074E09595D9
:100E000087957A95E1F78770819FC00111242F7033
:100E1000280FF701238F48C064E0959587956A9560
:100E2000E1F78370819FC0011124280FF701248FFF
:100E30003BC090E054E0959587955A95E1F7837013
:100E4000819FC00111242F70280FF701258F2CC01E
:100E500090E044E0959587954A95E1F78770819FEA
:100E6000C00111242F70280FF701268F1DC090E0BC
:100E700034E0959587953A95E1F78370819FC0019D
:100E800011242F70280FF701278F0EC090E0B4E0D7
:100E900095958795BA95E1F78370819FC0011124DC
:100EA0002F70280FF70120A32196CC16DD0608F03D
:100EB000F3CEDF91CF911F91FF90EF90DF90CF9015
:100EC00008950F931F938C0166E00E942506C801C8
:100ED0000E946F041F910F9108950F931F93CF935A
:100EE000DF93EC01042F6FA380E361E00E94B01652
:100EF0001FA1113019F0103199F40DC080E361E0A9
:100F00000E94CE16013019F482E08A8B09C00023BA
:100F100039F41A8B05C080E360E00E94CE161A8A6D
:100F2000DF91CF911F910F910895662309F04CC076
:100F30004034510509F445C041345105C8F44230EC
:100F40005105A9F14330510540F44115510589F18E
:100F50004130510509F082C02CC04830510539F1AB
:100F60004032510571F14430510509F077C01FC07E
:100F700082E040305807F9F082E04130580740F4F1
:100F800040385105C1F04050514009F067C013C0CE
:100F900088E040305807A9F080E14030580729F038
:100FA0004050544009F05AC00CC084E00BC082E0AD
:100FB00009C08EE007C087E061E00E94CE168AE09B
:100FC00001C087E061E043C0613009F047C04034B0
:100FD0005105D9F141345105B8F44230510589F138
:100FE0004330510538F44115510569F1413051053F
:100FF000A9F529C04830510521F14032510529F1A8
:101000004430510559F51DC082E040305807E9F0E1
:1010100082E04130580738F440385105B1F0405073
:101020005140E1F412C088E04030580799F080E167
:101030004030580721F04050544081F406C084E00D
:1010400005C082E003C08EE001C087E060E00E943E
:10105000CE16089587E060E00E94CE1608951F9393
:10106000162F68EE73E080E090E00E947315112364
:1010700019F0113011F515C08AE161E00E94CE1619
:1010800088E161E00E94CE1680917A0A882331F4CB
:1010900088E69AE061E041E00E946D0787E061E048
:1010A0000AC08AE160E00E94CE1688E160E00E94FA
:1010B000CE1687E060E00E94CE161F91089582E36D
:1010C00060E00E94B01682E361E00E94CE1685E0E7
:1010D00061E00E94B01684E061E00E94B01686E0F4
:1010E00061E00E94B01687E061E00E94B01689E0DE
:1010F00060E00E94B0168AE061E00E94B01688E0CD
:1011000060E00E94B01682E061E00E94B0168EE0BE
:1011100061E00E94B0168AE161E00E94B01688E1A9
:1011200061E00E94B0168FE060E00E94B01681E19D
:1011300060E00E94B01683E160E00E94B01685E096
:1011400060E00E94CE1684E060E00E94CE1686E049
:1011500060E00E94CE1687E060E00E94CE168AE032
:1011600060E00E94CE1682E060E00E94CE168EE023
:1011700060E00E94CE168AE160E00E94CE1688E10F
:1011800060E00E94CE16089584E69AE00E945F080F
:101190000895CF93DF93EC0161E040E00E946D077A
:1011A0008091A411882321F484EA91E10E94A82C63
:1011B000CE010E947D05CE010E943F04CE016DE06C
:1011C0000E942506DF91CF91089589E261E00E9497
:1011D000B01688E261E00E94B01684EA91E10E94B4
:1011E000532C08950F931F93DF93CF9300D0CDB767
:1011F000DEB78091A411882321F484EA91E10E9452
:10120000A82C19821A8264E670E080E090E00E94C7
:10121000731562E370E080E090E00E94731584EA49
:1012200091E164E170E042E050E00E94A52C8E0163
:101230000F5F1F4F07C084EA91E10E94412CF80123
:1012400081938F0184EA91E10E943B2C882399F7D6
:101250008091A411882391F08091E20A882371F48F
:1012600080917A0A813051F086E69AE00E94E50882
:1012700088E69AE060E141E00E946D07298130E054
:1012800040E050E0542F432F322F22278A81280F2D
:10129000311D411D511DCA01B901E3E0660F771FE1
:1012A000881F991FEA95D1F7620F731F841F951F3E
:1012B00069507048844090400E94FF2F20E03FEF2B
:1012C0004FE757E40E94642F0F900F90CF91DF916A
:1012D0001F910F910895EF92FF920F931F93DF9349
:1012E000CF9300D00F92CDB7DEB77C01DE0111960F
:1012F000EEE2FAE083E001900D928150E1F78091F7
:10130000A411882321F484EA91E10E94A82C64E6C8
:1013100070E080E090E00E94731564E670E080E089
:1013200090E00E94731564E670E080E090E00E9417
:10133000731584EA91E166E170E00E94312C84EA41
:1013400091E160EA0E945D2C84EA91E165E570E03C
:101350000E94812C84EA91E10E94842C6CE271E06D
:1013600080E090E00E94731584EA91E166E170E00C
:1013700043E050E00E94A52C8E010F5F1F4F07C075
:1013800084EA91E10E94412CF80181938F0184EA63
:1013900091E10E943B2C882399F78091A411882326
:1013A00091F08091E20A882371F480917A0A813069
:1013B00051F086E69AE00E94E50888E69AE060E14E
:1013C00041E00E946D07C701BE016F5F7F4F41E0A2
:1013D0000E9478010F900F900F90CF91DF911F9195
:1013E0000F91FF90EF900895EF92FF920F931F934C
:1013F000DF93CF9300D00F92CDB7DEB77C01DE0133
:101400001196E1E3FAE083E001900D928150E1F75B
:101410008091A411882321F484EA91E10E94A82CF0
:1014200064E670E080E090E00E94731564E670E08E
:1014300080E090E00E94731564E670E080E090E048
:101440000E94731584EA91E166E170E00E94312CFC
:1014500084EA91E161EA0E945D2C84EA91E165E50C
:1014600070E00E94812C84EA91E10E94842C6CE25D
:1014700071E080E090E00E94731584EA91E166E1FA
:1014800070E043E050E00E94A52C8E010F5F1F4FDB
:1014900007C084EA91E10E94412CF80181938F01F9
:1014A00084EA91E10E943B2C882399F78091A41152
:1014B000882391F08091E20A882371F480917A0A5E
:1014C000813051F086E69AE00E94E50888E69AE0CD
:1014D00060E141E00E946D07C701BE016F5F7F4F71
:1014E00040E00E9478010F900F900F90CF91DF9114
:1014F0001F910F91FF90EF900895EF92FF920F933D
:101500001F9389E161E00E94B01689E161E00E94C9
:10151000CE1680E00E949516AA2797FDA095BA2FB7
:10152000BC01CD010E94FF2F7B018C0120E030E047
:1015300040E054E40E94602F882334F489E160E0A5
:101540000E94CE1610E046C0C801B70120E030EC82
:1015500042E254E40E94AF30181634F489E160E0AE
:101560000E94CE1614E636C0C801B70120E030EC68
:1015700042E254E40E94602F1816BCF0C801B70183
:1015800020E030EC47E054E40E94AF3018166CF4D1
:10159000C801B70125E535E545E55FE30E94B330B5
:1015A00020E030E04DED53E40CC0C801B70120E06D
:1015B00030E040EA5EE30E94B33020E030E040E2F9
:1015C00053E40E94FB2E0E94D12F162F89E160E088
:1015D0000E94CE16812F1F910F91FF90EF900895DA
:1015E000EF92FF920F931F937A018B018091A411C8
:1015F000882321F484EA91E10E94A82C64E670E03B
:1016000080E090E00E94731584EA91E168E20E9414
:10161000272C84EA91E160E070E00E94812C63E372
:1016200073E383E590E4A80197010E94FB2E20E07C
:1016300030E040E053E40E94B33023E333E343E57A
:1016400050E40E94642F0E94D12F9B01AC0184EAD8
:1016500091E1622F0E945D2C84EA91E10E94842C2A
:101660008091A411882391F08091E20A882371F47B
:1016700080917A0A813051F086E69AE00E94E5086E
:1016800088E69AE060E141E00E946D071F910F91AA
:10169000FF90EF9008950F931F938C01CB01BA0137
:1016A0002FE832EC45EF5CE30E94B3302AE939E9D8
:1016B00049E150E40E94642FAB01BC01C8010E94C3
:1016C000F00A1F910F91089588E69AE00E94C908D8
:1016D0008091270A9091280A019749F487EA92E0BD
:1016E00090932A0A8093290A83EB92E008C080EC49
:1016F00092E090932A0A8093290A8CEC92E09093CE
:101700002C0A80932B0A89E190E10E94A02A89E1AA
:1017100090E169ED72E00E94FA2986E69AE00E9463
:101720007D0A482F50E060E070E089E190E12AE016
:1017300030E00E94DC2989E190E169EE72E00E94CC
:10174000922A84E69AE060E00E942F0884E69AE0FC
:1017500060E041E050E00E94950764E670E080E0C0
:1017600090E00E94731584E69AE040E050E064EB5C
:1017700072E40E944B0B84E69AE060E040E050E0A7
:101780000E94950764E670E080E090E00E94731587
:101790000895AF92BF92CF92DF92EF92FF920F9394
:1017A0001F93CF93DF930E945B155B016C01EE24C6
:1017B000FF24C0E0D0E00EC088E00E9419178C0121
:1017C00021E0E216F10419F4009709F421960E9431
:1017D0005B1578010E945B156A197B098C099D09CC
:1017E000695B7B408040904038F364E670E080E0C5
:1017F00090E00E947315CE01DF91CF911F910F9160
:10180000FF90EF90DF90CF90BF90AF900895BF9280
:10181000CF92DF92EF92FF920F931F93CF93DF93BC
:10182000162F8FE060E00E94B01681E160E00E9418
:10183000B01683E160E00E94B0168AE060E00E948A
:10184000CE16143049F0183051F0123019F41FE060
:10185000B12E07C0BB2405C0B3E1BB2E02C0A1E17D
:10186000BA2E0E945B156B017C01C0E0D0E000E065
:1018700010E08B2D0E941917219739F4009729F455
:101880000F5F1F4FC0E0D0E001C0EC0187E0003DDA
:1018900018077CF30E945B156C197D098E099F095E
:1018A0000E94FD2F9B01AC0160E074E284EF99E49B
:1018B0000E94642FDF91CF911F910F91FF90EF90C5
:1018C000DF90CF90BF9008954F925F927F928F925A
:1018D0009F92AF92BF92CF92DF92EF92FF920F93BF
:1018E0001F93CF93DF932C01762E662319F433E0F8
:1018F000732E05C021E0621711F425E0722E86E0F8
:1019000061E00E94B01685E061E00E94B01686E0BA
:1019100061E00E94CE1685E061E00E94CE1681E073
:1019200090E00E94BB1586E060E00E94CE1685E044
:1019300060E00E94CE1681E090E00E94BB1585E039
:1019400061E00E94CE1686E061E00E94CE1681E042
:1019500090E00E94BB1585E060E00E94CE1686E014
:1019600065E041E0272D0E949F1985E061E00E941B
:10197000CE1686E060E00E94B0160E945B155B0107
:101980006C0186E00E941917EC0104C00E945B15EF
:101990005B016C01219709F0DBC00E945B157501AA
:1019A00086016E197F09800B910B6A3071058105E4
:1019B000910508F0CDC086E00E941917EC010E9445
:1019C0005B156E157F058007910720F7DFCF0E941A
:1019D0005B155B016C01CD2B09F0C9C00E945B1542
:1019E000750186016E197F09800B910B6A307105B4
:1019F0008105910508F0BBC086E00E941917EC0133
:101A00000E945B156E157F058007910720F7DFCFD9
:101A10000130110509F0B6C00E945B156C197D09F3
:101A20008E099F09605971408040904008F0AAC01B
:101A300086E00E9419178C01EBCF85E061E00E94DF
:101A4000CE16CC0FDD1F86E00E941917C80FD91FD4
:101A500085E060E00E94CE160F5F1F4F0830110531
:101A600061F70E945B1586E00E9419176C010E94C5
:101A70005B154B015C01CD2809F08DC00E945B1500
:101A8000740185016E197F09800B910B6A30710515
:101A90008105910508F07FC086E00E9419176C014E
:101AA0000E945B156E157F058007910720F7DFCF39
:101AB00085E061E00E94CE16CC0FDD1F86E00E941B
:101AC0001917C80FD91F85E060E00E94CE160F5F7E
:101AD0001F4F0830110561F70E945B1586E061E039
:101AE0000E94B01686E061E00E94CE1685E061E0BB
:101AF0000E94CE1680E991E00E94BB1585E060E06F
:101B00000E94CE1686E060E00E94CE1683E0781632
:101B1000A1F4BE01882777FD8095982F0E94FF2FA2
:101B20002AE037ED43E25CE30E94B3302DEC3CEC5D
:101B30004EE152E40E94FB2E51C025E0721639F4AA
:101B4000C201BE0141E050E00E94F60047C046C01D
:101B50000E945B1585E060E00E94CE160E945B1536
:101B60005B016C0186E00E941917EC0134CF0E94E2
:101B70005B1586E00E9419178C010E945B156B01B2
:101B80007C0146CF0E945B150E945B15C0E0D0E04F
:101B900000E010E052CF0E945B1586E061E00E94F9
:101BA000B01686E060E00E94CE1681E090E00E94D0
:101BB000BB1585E061E00E94CE1680E991E00E94AD
:101BC000BB1585E060E00E94CE1686E060E00E94D2
:101BD000B0160E945B1500E010E06ACFDF91CF9154
:101BE0001F910F91FF90EF90DF90CF90BF90AF903B
:101BF0009F908F907F905F904F900895EF92FF920B
:101C00000F931F93CF93DF93EC016032710509F4BA
:101C1000A3C061327105E8F46230710509F446C071
:101C20006330710548F46115710509F476C06130BF
:101C3000710509F0E5C057C06830710509F444C06A
:101C40006031710509F4C5C06430710509F0D8C070
:101C500034C082E06030780709F4A3C082E06130CC
:101C6000780770F46038710509F47DC081E0603058
:101C7000780709F48EC06034710509F0C1C06FC0E7
:101C800088E06030780709F498C080E16030780718
:101C900029F06050744009F0B3C08BC083E00E940B
:101CA0009516BC01CE010E945D02A7C08AE060E0EB
:101CB0000E94CE16CE0162E00DC08AE060E00E9474
:101CC000CE16CE0164E006C08AE060E00E94CE1627
:101CD000CE0168E00E94070C7B018C018AE061E084
:101CE0000E94CE1691C087E00E949516A0E0B0E059
:101CF000BC01CD010E94FD2F23E333E343E550E413
:101D00000E94B3302AE939E949E150E40E94B33036
:101D10002EE135E845EF51E439C085E00E94951683
:101D2000A0E0B0E0BC01CD010E94FD2F23E333E32E
:101D300043E550E40E94B33020E030EC4FE754E438
:101D40000E94642F9B01AC017B018A01CE01A90195
:101D5000B8010E948E0258C00E94F4094EC0CE0104
:101D60000E946B094AC086E00E949516A0E0B0E090
:101D7000BC01CD010E94FD2F23E333E343E550E492
:101D80000E94B33020E030EC4FE754E40E94642F0F
:101D900034C084E00E949516BC01CE010E9420044C
:101DA0002CC082E00E949516BC01CE010E94FB036C
:101DB00024C0CE010E94F20820C0442319F4CE01B1
:101DC00060E004C04130E1F4CE0161E00E94640CA7
:101DD00014C00E94C90BA0E0B0E0BC01CD010E947C
:101DE000FD2F24E83DE04FE85EE30E94B33020E0A1
:101DF00030E040EA51E40E94B3307B018C0104C022
:101E0000EE24FF2400E010E0B701C801DF91CF917C
:101E10001F910F91FF90EF90089540E00E94FE0DFA
:101E200008959F92AF92BF92CF92DF92EF92FF926E
:101E30000F931F93DF93CF93CDB7DEB7C954D14033
:101E40000FB6F894DEBF0FBECDBF89E190E10E94CE
:101E5000A02A89E190E16BEE72E00E94922A60E490
:101E60007FE180E090E00E9473158091290A9091B3
:101E70002A0A9093C20A8093C10A80912B0A9091FA
:101E80002C0A9093C40A8093C30A8DE39DE00E94BC
:101E9000632989E190E169EF72E00E94FA2960917B
:101EA000C10A7091C20A89E190E10E94922A89E1F7
:101EB00090E164E073E00E94FA296091C30A709196
:101EC000C40A89E190E10E94922A84E69AE061E0E6
:101ED00070E00E940D0F6093B30A7093B40A809370
:101EE000B50A9093B60A84E69AE060E070E00E943A
:101EF0000D0F6093BD0A7093BE0A8093BF0A909342
:101F0000C00A6091B70A7091B80A8091B90A90919D
:101F1000BA0A2091B30A3091B40A4091B50A50919F
:101F2000B60A0E94FC2E7B018C016091BB0A709165
:101F3000BC0A6F5F7F4F882777FD8095982F0E949E
:101F4000FF2F9B01AC01C801B7010E94642F609371
:101F5000B70A7093B80A8093B90A9093BA0A89E1D4
:101F600090E160E173E00E94FA294091B30A509138
:101F7000B40A6091B50A7091B60A89E190E10E94B5
:101F8000872A89E190E16DE173E00E94FA2940918E
:101F9000B70A5091B80A6091B90A7091BA0A89E1FA
:101FA00090E10E94872A89E190E169E273E00E9452
:101FB000FA298091640A9091650A8034910509F4A8
:101FC00075C081349105FCF48430910509F45AC040
:101FD0008530910564F48130910509F449C082305F
:101FE000910509F44AC0892B09F43DC08BC08031AA
:101FF000910509F451C08032910509F452C0089747
:1020000009F080C044C024E08030920709F462C027
:1020100034E0813093077CF4A1E080309A0709F422
:102020004FC0B2E080309B0709F44FC08038910563
:1020300009F068C040C0E0E180309E0709F454C058
:10204000F0E181309F072CF48050984009F05AC08D
:1020500046C030E28030930709F44BC08050904472
:1020600009F050C04BC0EAE3AE2EE3E0BE2E4AC0FA
:102070007CE3A72E73E0B72E45C060E4A62E63E094
:10208000B62E40C053E4A52E53E0B52E3BC047E426
:10209000A42E43E0B42E36C039E4A32E33E0B32E91
:1020A00031C02DE4A22E23E0B22E2CC090E5A92E43
:1020B00093E0B92E27C084E5A82E83E0B82E22C075
:1020C00006E5A02E03E0B02E1DC01AE5A12E13E0F8
:1020D000B12E18C0BDE5AB2EB3E0BB2E13C0A1E6F8
:1020E000AA2EA3E0BA2E0EC0F3E6AF2EF3E0BF2E69
:1020F00009C0E7E6AE2EE3E0BE2E04C07AE6A72EC6
:1021000073E0B72E89E190E1B5010E94922A83EE37
:102110009AE00E94362406C089E190E16EE673E001
:102120000E94922A83EE9AE00E94BA1D8823A1F3AE
:1021300083EE9AE00E94451F83EE9AE00E94101FF2
:1021400083EE9AE00E944A2068EE73E080E090E01F
:102150000E94731583EE9AE00E949921882331F042
:1021600089E190E16FE773E00E94922A68E57BE1E4
:1021700080E090E00E94731583EE9AE06DE873E0D2
:102180004BE953E020E00E944822882301F189E1D5
:1021900090E16EE973E00E94FA290BEC1BE00DC0A0
:1021A00050E040535040662757FD6095762F89E1F7
:1021B00090E12AE030E00E94DC29F80141918F0192
:1021C0004D3071F789E190E10E948D2906C089E1C7
:1021D00090E16FEA73E00E94922A60E47FE180E080
:1021E00090E00E94731589E190E168EC73E00E9431
:1021F000922A4091B70A5091B80A6091B90A709139
:10220000BA0A8AE190E17E010894E11CF11C970171
:1022100002E010E00E94052B89E190E1B7010E94E5
:10222000922A8091270A9091280A019719F062E377
:10223000962E02C051E3952E0091C10A1091C20A58
:10224000E090C30AF090C40A86E69AE00E947D0AF4
:102250002DB73EB7225130400FB6F8943EBF0FBEA7
:102260002DBFEDB7FEB731964AE0C42ED12CCC0E6F
:10227000DD1EADB7BEB71296DC92CE92119725ED5A
:1022800033E033832283292D332727FD309535838F
:10229000248317830683F186E0869E012F5F3F4FDC
:1022A00033872287B586A4868687178683E094E0E5
:1022B000918B808B0E94BD32EDB7FEB772960FB640
:1022C000F894FEBF0FBEEDBF89E190E166E074E0D7
:1022D0000E94922A2DB73EB72A5030400FB6F8948C
:1022E0003EBF0FBE2DBFEDB7FEB731968E01005B2E
:1022F0001F4FADB7BEB712961C930E9311978FE088
:1023000094E09383828387E194E095838483D782EA
:10231000C68280E794E0918780870E94BD32EDB746
:10232000FEB73A960FB6F894FEBF0FBEEDBF89E137
:1023300090E1B8010E94922A89E190E160EC74E09A
:102340000E94922A83EE9AE0B8014BEC5BE00E9477
:102350006B1C882331F089E190E16DED74E00E94FF
:10236000922A60ED77E080E090E00E94731583EEA2
:102370009AE06BEC7BE047EE54E00E94F01A882371
:10238000B1F389E190E16AEE74E00E94922A89E15A
:1023900090E16FEC7BE00E94922A83EE9AE06BEC76
:1023A0007BE00E947A1F882331F089E190E16BEF96
:1023B00074E00E94922A80E090E0A0E0B0E0809378
:1023C000B70A9093B80AA093B90AB093BA0A1092C8
:1023D000BC0A1092BB0AC75BDE4F0FB6F894DEBF93
:1023E0000FBECDBFCF91DF911F910F91FF90EF9066
:1023F000DF90CF90BF90AF909F9008950F931F9361
:1024000084E69AE061E070E00E940D0F9B01AC0150
:102410006093B30A7093B40A8093B50A9093B60A96
:102420006091B70A7091B80A8091B90A9091BA0A7E
:102430000E94FC2E6093B70A7093B80A8093B90A81
:102440009093BA0A6091BB0A7091BC0A6F5F7F4F8C
:102450007093BC0A6093BB0A09E110E1C8010E94B5
:10246000C429C80169E075E00E94FA294091B30AC5
:102470005091B40A6091B50A7091B60AC8010E94E1
:10248000872A1F910F9108950F931F93CF93DF9386
:1024900000E010E017C060E47FE180E090E00E947F
:1024A000731560ED77E080E090E00E94731521964F
:1024B000C630D10581F70E94FE110F5F1F4F093012
:1024C000110519F0C0E0D0E0E6CFDF91CF911F9168
:1024D0000F910895AF92BF92CF92DF92EF92FF9249
:1024E0000F931F93DF93CF93CDB7DEB729970FB626
:1024F000F894DEBF0FBECDBFA8E6AA2EAAE0BA2E82
:10250000C5016BE175E00E94D105F9E1EF2EF0E124
:10251000FF2EC70160E375E00E94FA29C5010E9401
:102520006107BC01C7010E94922A60E47FE180E05C
:1025300090E00E94731580E090E0A0E0B0E080930E
:10254000B70A9093B80AA093B90AB093BA0A109246
:10255000BC0A1092BB0A0E944412C7016DE375E0E9
:102560000E94FA296091BB0A7091BC0AC7010E94BF
:10257000CC29C70165E475E00E94FA294091B70AA9
:102580005091B80A6091B90A7091BA0A8AE190E153
:102590006E010894C11CD11C960102E010E00E945B
:1025A000052BC701B6010E94922A0E94110FC70194
:1025B0006CE475E00E94FA29C5010E946107BC0124
:1025C000C7010E94922AC70167E575E00E94922A1E
:1025D00029960FB6F894DEBF0FBECDBFCF91DF9125
:1025E0001F910F91FF90EF90DF90CF90BF90AF9031
:1025F00008950E94C9150E94640B0E946A12FDCFC3
:10260000F894883028F58330A1F0843028F48130A4
:1026100061F0823060F407C0863079F0873079F05D
:10262000843071F408C0E8980BC0E99809C0EA98B2
:1026300007C0EB9805C0EC9803C0EE9801C0EF9876
:10264000E82FF0E0EE0FFF1FEB53F54F11821082E1
:10265000789408951F920F920FB60F920BB60F92B7
:1026600011242F933F934F935F936F937F938F9397
:102670009F93AF93BF93EF93FF938091C50A90917F
:10268000C60A892B29F0E091C50AF091C60A09957E
:10269000FF91EF91BF91AF919F918F917F916F913A
:1026A0005F914F913F912F910F900BBE0F900FBEF6
:1026B0000F901F9018951F920F920FB60F920BB6A6
:1026C0000F9211242F933F934F935F936F937F93B8
:1026D0008F939F93AF93BF93EF93FF938091C70A1C
:1026E0009091C80A892B29F0E091C70AF091C80A95
:1026F0000995FF91EF91BF91AF919F918F917F913C
:102700006F915F914F913F912F910F900BBE0F9062
:102710000FBE0F901F9018951F920F920FB60F9239
:102720000BB60F9211242F933F934F935F936F93A8
:102730007F938F939F93AF93BF93EF93FF9380917A
:10274000C90A9091CA0A892B29F0E091C90AF0912F
:10275000CA0A0995FF91EF91BF91AF919F918F9117
:102760007F916F915F914F913F912F910F900BBE91
:102770000F900FBE0F901F9018951F920F920FB6DB
:102780000F920BB60F9211242F933F934F935F93A9
:102790006F937F938F939F93AF93BF93EF93FF9329
:1027A0008091CB0A9091CC0A892B29F0E091CB0A39
:1027B000F091CC0A0995FF91EF91BF91AF919F9154
:1027C0008F917F916F915F914F913F912F910F90DA
:1027D0000BBE0F900FBE0F901F9018951F920F9277
:1027E0000FB60F920BB60F9211242F933F934F9376
:1027F0005F936F937F938F939F93AF93BF93EF9369
:10280000FF938091CD0A9091CE0A892B29F0E09117
:10281000CD0AF091CE0A0995FF91EF91BF91AF914A
:102820009F918F917F916F915F914F913F912F91E8
:102830000F900BBE0F900FBE0F901F9018951F9218
:102840000F920FB60F920BB60F9211242F933F9356
:102850004F935F936F937F938F939F93AF93BF93A8
:10286000EF93FF938091CF0A9091D00A892B29F0A2
:10287000E091CF0AF091D00A0995FF91EF91BF91B5
:10288000AF919F918F917F916F915F914F913F9108
:102890002F910F900BBE0F900FBE0F901F901895A9
:1028A0001F920F920FB60F920BB60F9211242F9317
:1028B0003F934F935F936F937F938F939F93AF93C8
:1028C000BF93EF93FF938091D10A9091D20A892B05
:1028D00029F0E091D10AF091D20A0995FF91EF9188
:1028E000BF91AF919F918F917F916F915F914F9128
:1028F0003F912F910F900BBE0F900FBE0F901F9026
:1029000018951F920F920FB60F920BB60F921124CB
:102910002F933F934F935F936F937F938F939F93E7
:10292000AF93BF93EF93FF938091D30A9091D40A12
:10293000892B29F0E091D30AF091D40A0995FF91EF
:10294000EF91BF91AF919F918F917F916F915F9127
:102950004F913F912F910F900BBE0F900FBE0F9094
:102960001F901895EF92FF920F931F937B018C019C
:10297000F894CB0181709070892B19F082E00E944D
:102980000013E1FE03C083E00E940013E2FE03C0D7
:1029900082E00E940013E3FE03C083E00E94001364
:1029A000E4FE03C082E00E940013F3FE03C082E055
:1029B0000E940013E5FE03C084E00E940013F4FEB1
:1029C00003C082E00E940013F5FE03C082E00E9473
:1029D0000013F6FE03C083E00E94001300FF03C053
:1029E00083E00E9400138091AF0A9091B00AA091F9
:1029F000B10AB091B20AE094F094009510958E213E
:102A00009F21A023B1238093AF0A9093B00AA09393
:102A1000B10AB093B20A78941F910F91FF90EF9092
:102A200008951F920F920FB60F9211248F939F93C8
:102A3000AF93BF9380917C1290917D12A0917E12F2
:102A4000B0917F120196A11DB11D80937C129093CD
:102A50007D12A0937E12B0937F12BF91AF919F9190
:102A60008F910F900FBE0F901F9018951F920F928D
:102A70000FB60F9211248F939F93AF93BF938091C2
:102A8000801290918112A0918212B09183120196CE
:102A9000A11DB11D8093801290938112A093821288
:102AA000B0938312BF91AF919F918F910F900FBE02
:102AB0000F901F90189560917C1270917D128091FB
:102AC0007E1290917F1227E0660F771F881F991F53
:102AD0002A95D1F72EE330E040E050E00E943531F6
:102AE000CA01B9010895AF92BF92CF92DF92EF92DF
:102AF000FF920F931F935B016C0160917C127091A8
:102B00007D1280917E1290917F1247E0660F771FB1
:102B1000881F991F4A95D1F72EE330E040E050E03E
:102B20000E94353179018A0160917C1270917D1289
:102B300080917E1290917F1237E0660F771F881F79
:102B4000991F3A95D1F72EE330E040E050E00E9423
:102B500035312E193F09400B510B2A153B054C0509
:102B60005D0510F31F910F91FF90EF90DF90CF90D4
:102B7000BF90AF900895019759F0019749F0FC017B
:102B8000EE0FFF1F31978FB7F8943197F1F78FBF92
:102B90000895789484B7877F84BF10927C12109236
:102BA0007D1210927E1210927F1284B5826084BDD5
:102BB00084B5816084BD85B5826085BD85B5816041
:102BC00085BDEEE6F0E0808181608083E1E8F0E0A1
:102BD000808182608083808181608083E0E8F0E092
:102BE000808181608083E1EBF0E08081846080837C
:102BF000E1E9F0E0808184608083E0EBF0E08081B7
:102C000081608083E0E9F0E0808181608083E4E698
:102C1000F0E080818E7F8083ECE7F0E080818F7729
:102C20008083808180648083EAE7F0E08081846033
:102C3000808380818260808380818068808310921D
:102C4000C1001092C90008959091D50A982B9093D5
:102C5000D50A80FF32C0809164008E7F809364002B
:102C600080917C008F7780937C0080917C008064D1
:102C700080937C0080917A00846080937A008091B8
:102C80007A00826080937A0080917A0080688093D5
:102C90007A00809164008F77809364008091640053
:102CA0008B7F80936400809164008D7F80936400AB
:102CB000809165008E7F8093650008951F920F922A
:102CC0000FB60F920BB60F9211242F933F934F9391
:102CD0005F936F937F938F939F93AF93BF93EF9384
:102CE000FF93F89481E080932D0AE0E6F0E0808184
:102CF0008068808380818F7B808383E060E00E9496
:102D0000CE167894FF91EF91BF91AF919F918F91E3
:102D10007F916F915F914F913F912F910F900BBEDB
:102D20000F900FBE0F901F90189590917C008F70A0
:102D3000907F892B80937C0080917A0080648093BF
:102D40007A0080917A0086FDFCCF20917800409136
:102D50007900942F80E030E0282B392BC9010895A9
:102D6000282F30E0C901895E9E4FFC0194912C51BF
:102D70003F4FF9018491882381F0E82FF0E0E4537C
:102D8000FF4FE491F0E0662329F480819095892338
:102D9000808308958081892B80830895482F50E097
:102DA000CA01865B9E4FFC012491CA01895E9E4F39
:102DB000FC0194914C515F4FFA0134913323C1F1DE
:102DC000222331F1233021F4809180008F7705C0D8
:102DD000243031F4809180008F7D8093800018C072
:102DE000213019F484B58F7704C0223021F484B5E2
:102DF0008F7D84BD0DC0263021F48091B0008F7787
:102E000005C0273029F48091B0008F7D8093B000F9
:102E1000E32FF0E0EC52FF4FE491F0E0662329F459
:102E2000808190958923808308958081892B808378
:102E30000895482F50E0CA01865B9E4FFC01249103
:102E4000CA01895E9E4FFC0194914C515F4FFA017B
:102E50003491332319F420E030E035C0222331F1DE
:102E6000233021F4809180008F7705C0243031F425
:102E7000809180008F7D8093800018C0213019F4EC
:102E800084B58F7704C0223021F484B58F7D84BD52
:102E90000DC0263021F48091B0008F7705C0273017
:102EA00029F48091B0008F7D8093B000E32FF0E093
:102EB000E452FF4FE491F0E0808120E030E089238C
:102EC00011F021E030E0C9010895882389F4809150
:102ED000D60A9091D70A80509E4F2091D80A3091FF
:102EE000D90A821B930B60E072E00E9422310895A0
:102EF0008091DA0A9091DB0A80509E4F2091DC0A83
:102F00003091DD0A821B930B60E072E00E94223157
:102F100008958823D1F44091D80A5091D90A80911C
:102F2000D60A9091D70A8417950751F1FA01EC5708
:102F3000FB4E2081CA01019660E072E00E942231BE
:102F40009093D90A8093D80A19C04091DC0A509115
:102F5000DD0A8091DA0A9091DB0A8417950781F0E7
:102F6000FA01EC57FD4E2081CA01019660E072E043
:102F70000E9422319093DD0A8093DC0A30E002C087
:102F80002FEF3FEFC9010895882349F41092D90A21
:102F90001092D80A1092D70A1092D60A0895109269
:102FA000DD0A1092DC0A1092DB0A1092DA0A089508
:102FB0001F920F920FB60F920BB60F9211242F9300
:102FC0003F934F935F936F937F938F939F93AF93B1
:102FD000BF93EF93FF934091C600E091D60AF09122
:102FE000D70ACF01019660E072E00E9422319C0175
:102FF0008091D80A9091D90A2817390739F0EC57EF
:10300000FB4E40833093D70A2093D60AFF91EF916D
:10301000BF91AF919F918F917F916F915F914F91F0
:103020003F912F910F900BBE0F900FBE0F901F90EE
:1030300018951F920F920FB60F920BB60F92112494
:103040002F933F934F935F936F937F938F939F93B0
:10305000AF93BF93EF93FF934091CE00E091DA0AD4
:10306000F091DB0ACF01019660E072E00E9422310C
:103070009C018091DC0A9091DD0A2817390739F00C
:10308000EC57FD4E40833093DB0A2093DA0AFF9120
:10309000EF91BF91AF919F918F917F916F915F91D0
:1030A0004F913F912F910F900BBE0F900FBE0F903D
:1030B0001F901895982F662339F48091C00085FFE2
:1030C000FCCF9093C60008958091C80085FFFCCF87
:1030D0009093CE000895FC0110C03196662339F418
:1030E0008091C00085FFFCCF9093C60006C0809100
:1030F000C80085FFFCCF9093CE009081992369F79B
:1031000008952F923F924F925F926F927F928F928B
:103110009F92AF92BF92CF92DF92EF92FF920F9366
:103120001F93DF93CF93CDB7DEB7A1970FB6F89477
:10313000DEBF0FBECDBF6B017C0129013A0109A39F
:10314000611571058105910591F4002341F4809189
:10315000C00085FFFCCF80E38093C6005BC08091F8
:10316000C80085FFFCCF80E38093CE0053C0882445
:10317000992454011E010894211C311C8101080D61
:10318000191DC701B601A30192010E943531F80152
:1031900060830894811C911CA11CB11CC701B6015D
:1031A000A30192010E943531C901DA016C017D0150
:1031B000C114D104E104F10409F79101280D391D6E
:1031C000BE016F5F7F4FD501C4010197A109B1090D
:1031D000AC01481959091BC0FA01E20FF31FE08145
:1031E000EA3010F4E05D01C0E95CF9A1FF2339F495
:1031F0008091C00085FFFCCFE093C60006C080919F
:10320000C80085FFFCCFE093CE002150304062170C
:10321000730711F7A1960FB6F894DEBF0FBECDBFAE
:10322000CF91DF911F910F91FF90EF90DF90CF90A2
:10323000BF90AF909F908F907F906F905F904F90D6
:103240003F902F900895EF92FF920F931F937B0171
:103250008C014423C1F588E00E942416C801B701FF
:1032600022E030E040E050E00E945731205E3E45D1
:10327000484F5F4FCA01B901A80197010E94573119
:10328000C901DA010197A109B109292F3A2F4B2F62
:10329000552747FD5A950196A11DB11D2093C500E4
:1032A00081508093C4008091C10080618093C100EF
:1032B0008091C10088608093C1008091C1008068C6
:1032C0008093C10037C080E10E942416C801B70175
:1032D00022E030E040E050E00E945731205E3E4561
:1032E000484F5F4FCA01B901A80197010E945731A9
:1032F000C901DA010197A109B109292F3A2F4B2FF2
:10330000552747FD5A950196A11DB11D2093CD006B
:1033100081508093CC008091C90080618093C90066
:103320008091C90088608093C9008091C90080683D
:103330008093C9001F910F91FF90EF900895BF9265
:10334000CF92DF92EF92FF920F931F93CF93DF9371
:10335000E82EF62EB42EC0E0D0E0022F10E087E079
:10336000C82ED12CBB2041F4B8010C2E02C075959B
:1033700067950A94E2F70AC0B6016C1B7D0BC80181
:1033800002C0959587956A95E2F7BC0161708E2D14
:103390000E94CE168F2D61E00E94CE168F2D60E028
:1033A0000E94CE162196C830D105E1F6DF91CF916B
:1033B0001F910F91FF90EF90DF90CF90BF900895F5
:1033C000089580E096E99093640B8093630B1092CC
:1033D000650B81E08093660B8093E30A08950F9359
:1033E0001F93CF93DF938B0183E790E061E070E060
:1033F0000E948C31EC01009711F48FEF35C08DB72E
:103400009EB70C970FB6F8949EBF0FBE8DBFEDB759
:10341000FEB73196ADB7BEB71296DC93CE93119737
:103420008DE795E093838283158304838DE090E09C
:10343000978386838AE090E09187808786E895E08D
:10344000938782870E94BD328DB79EB70C960FB6C8
:10345000F8949EBF0FBE8DBFCE0161E00E946B1835
:10346000CE010E94553281E0DF91CF911F910F91E3
:1034700008954F925F926F927F928F929F92AF9238
:10348000BF92CF92DF92EF92FF920F931F93CF9351
:10349000DF936C013B014A01590181E090E020E299
:1034A000F601E80FF91F2083019685369105C1F7D3
:1034B000EE24FF2403C00894E11CF11CF301EE0D7F
:1034C000FF1D80818823B9F708C068EE73E080E0B3
:1034D00090E00E9473150150104010161106ACF3D5
:1034E00064C081E00E946517892B09F053C0A814BD
:1034F000B9040CF04FC00894A11CB11C68EE73E035
:1035000080E090E00E947315ECCF81E00E94891763
:10351000F801808364E170E080E090E00E94731520
:1035200021960F5F1F4FCE15DF057CF310E081E081
:103530000E946517892B71F1A601D60120E030E0C9
:103540000FC011968C9111971196F301E20FF31FA2
:103550009081891719F0C0E0D0E00BC02F5F3F4F7A
:103560002E153F0574F381E02AC02196FA0181816E
:1035700080834F5F5F4FC415D505BCF381E00E9487
:103580008917CC0DDD1D898364E170E080E090E057
:103590000E94731581E00E946517892B59F0112351
:1035A00031F28601C0E0D0E0BCCF11E027010894E1
:1035B00041085108A814B9040CF493CF80E0DF91BE
:1035C000CF911F910F91FF90EF90DF90CF90BF9020
:1035D000AF909F908F907F906F905F904F900895E5
:1035E000AF92BF92CF92DF92EF92FF920F931F9311
:1035F000CF93DF935C01EB017A018EE190E061E013
:1036000070E00E948C318C01009709F444C190E075
:1036100001C09F5FFE01E90FF11D80818D30C9F768
:10362000923091F1933009F45CC0913009F08DC073
:103630008DB79EB70E970FB6F8949EBF0FBE8DBF85
:10364000EDB7FEB73196ADB7BEB712961C930E9389
:1036500011978BEC95E09383828387ED95E09583BA
:103660008483888186831782F186E0868DE090E0EE
:10367000938782878AE090E0958784870E94BD3295
:103680008DB79EB70E965CC0ADB7BEB750970FB65C
:10369000F894BEBF0FBEADBFEDB7FEB73196129620
:1036A0001C930E93119783EE95E09383828387EDAD
:1036B00095E09583848388818683178289818087BA
:1036C0001186F386E2868DE090E0958784878AE014
:1036D00090E0978786870E94BD328DB79EB740964F
:1036E0002FC0ADB7BEB752970FB6F894BEBF0FBE8E
:1036F000ADBFEDB7FEB7319612961C930E9311979E
:1037000081EF95E09383828387ED95E095838483B1
:103710008881868317828981808711868A81828742
:103720001386F586E4868DE090E0978786878AE0A9
:1037300090E0918B808B0E94BD328DB79EB74296F0
:103740000FB6F8949EBF0FBE8DBF81E00E94C417D4
:1037500062E370E080E090E00E947315C80161E0D0
:103760000E946B18C8010E94553281E00E946517C3
:10377000892B09F09CC00E945B1560517742804004
:10378000904008F094C00E945B15EFCF81E00E944A
:10379000891781E00E94891710E062C081E00E94D1
:1037A0008917E82EBEE48B1709F048C081E00E941B
:1037B0008917C82E24E48217B9F581E00E94891781
:1037C000D82E8DE4D81629F581E00E948917082F9C
:1037D000853499F481E00E948917833509F44DC03E
:1037E000F501E10FF11DE451FF4F0193E192C19208
:1037F000D192019380831A5F31C0F501E10FF11D71
:10380000E451FF4FF192E192C192D19280831B5F0C
:1038100025C0F501E10FF11DE451FF4FF192E19256
:10382000C192D0821C5F1AC0F501E10FF11DE45175
:10383000FF4FF192E19280831D5F10C0F501E10F0F
:10384000F11DE451FF4FF19280831E5F07C0F50127
:10385000E10FF11DE451FF4FF0821F5F143668F451
:1038600081E00E946517892B41F081E00E94891751
:10387000F82E95E4F91659F791CFF501E05BFE4F6C
:1038800080819181810F911D9183808380E01A3521
:1038900018F481E001C08FEFDF91CF911F910F915C
:1038A000FF90EF90DF90CF90BF90AF9008956AE0C7
:1038B00070E080E090E00E947315C50161E076E061
:1038C00044E150E020E030E000E010E00E94391ACE
:1038D000813009F75BCF8F929F92AF92BF92DF92B8
:1038E000EF92FF920F931F93CF93DF935C014B01F5
:1038F000EA018EE190E061E070E00E948C317C0191
:10390000009711F49FEFFCC090E001C09F5FF401AD
:10391000E90FF11D80818823C9F710E001C01F5F06
:10392000FE01E10FF11D80818D30C9F7092F0F5F76
:10393000010F81E00E94C417123091F1133009F495
:103940005CC0113009F08DC08DB79EB70E970FB6D1
:10395000F8949EBF0FBE8DBFEDB7FEB73196ADB7E1
:10396000BEB71296FC92EE92119789E096E093838F
:10397000828385E196E0958384838881868317829C
:10398000008711868DE090E0938782878AE090E03F
:10399000958784870E94BD328DB79EB70E965CC016
:1039A000ADB7BEB750970FB6F894BEBF0FBEADBF50
:1039B000EDB7FEB731961296FC92EE92119781E226
:1039C00096E09383828385E196E095838483888162
:1039D00086831782898180871186028713868DE00E
:1039E00090E0958784878AE090E0978786870E9499
:1039F000BD328DB79EB740962FC0ADB7BEB75297B8
:103A00000FB6F894BEBF0FBEADBFEDB7FEB731968F
:103A10001296FC92EE9211978FE296E09383828346
:103A200085E196E0958384838881868317828981E6
:103A3000808711868A8182871386048715868DE0A8
:103A400090E0978786878AE090E0918B808B0E9438
:103A5000BD328DB79EB742960FB6F8949EBF0FBE8B
:103A60008DBFC70161E00E946B18C7010E945532EB
:103A70000E945B157B018C0181E00E946517892BF8
:103A800009F04BC00E945B156E197F09800B910BEA
:103A9000685B7B408040904008F03FC00E945B150F
:103AA000EBCFDD2481E00E94C41764E170E080E088
:103AB00090E00E947315C501B4010E94EF190E94A5
:103AC0005B157B018C0181E00E946517892BD9F57C
:103AD0000E945B156E197F09800B910B685B7B4020
:103AE0008040904080F50E945B15EDCF8130D1F68B
:103AF00091E006C090E0813009F091E081E09827E4
:103B0000892FDF91CF911F910F91FF90EF90DF9060
:103B1000BF90AF909F908F9008956AE070E080E032
:103B200090E00E947315C50161E076E044E150E049
:103B300020E030E000E010E00E94391A813009F402
:103B4000B0CF90E0DDCF6AE070E080E090E00E94CE
:103B50007315C5016FE376E044E150E020E030E00A
:103B600000E010E00E94391AD39423E0D21609F045
:103B7000BDCFC0CF4F925F926F927F928F929F92F4
:103B8000AF92BF92DF92EF92FF920F931F93CF936A
:103B9000DF937C018AE090E061E070E00E948C316C
:103BA000EC01009711F48FEF79C040E1D42E32E49C
:103BB000432E36E0532E29E4622E26E0722E9DE03D
:103BC000892E912C8AE0A82EB12C2DB73EB72A5011
:103BD00030400FB6F8943EBF0FBE2DBFEDB7FEB715
:103BE0003196ADB7BEB71296DC93CE931197538240
:103BF00042827582648297828682B186A0860E9404
:103C0000BD32EDB7FEB73A960FB6F894FEBF0FBEC1
:103C1000EDBFCE0161E00E946B18C70162E576E05E
:103C200041E050E020E030E000E010E00E94391A6E
:103C3000813029F429E532E0E20EF31E15C0CE01F1
:103C400061E00E946B18C7016DE576E041E050E04D
:103C500020E030E000E010E00E94391A813059F491
:103C6000E9E5F2E0EE0EFF1ED7018C93CE010E9433
:103C7000553281E013C064E670E080E090E00E947D
:103C80007315DA9409F0A1CFE9E5F2E0EE0EFF1E1C
:103C9000D7011C92CE010E94553280E0DF91CF9176
:103CA0001F910F91FF90EF90DF90BF90AF909F908A
:103CB0008F907F906F905F904F9008958F929F921A
:103CC000AF92BF92CF92DF92EF92FF920F931F932A
:103CD000CF93DF935C01490168018C010F5F1F4F97
:103CE0008DB79EB708970FB6F8949EBF0FBE8DBFD5
:103CF000EDB7FEB73196ADB7BEB712961C930E93D3
:103D0000119788E696E09383828375836483578353
:103D100046830E94BD328DB79EB708960FB6F894C1
:103D20009EBF0FBE8DBF81E00E94C417C0E0D0E0EF
:103D30000DC0209721F4C80161E00E946B186AEF62
:103D400070E080E090E00E947315219681E00E946F
:103D50006517892B39F4CC15DD0524F4E114F10441
:103D600041F7E9CFC501B401A6019E0100E010E0D2
:103D70000E94391ADF91CF911F910F91FF90EF9020
:103D8000DF90CF90BF90AF909F908F900895EF926B
:103D9000FF920F931F93780100E117E20E945E1ECD
:103DA0001F910F91FF90EF900895AF92BF92CF9225
:103DB000DF92EF92FF920F931F936C015A018901DA
:103DC0007C010894E11CF11C00D000D000D0EDB7BC
:103DD000FEB73196ADB7BEB71296FC92EE92119730
:103DE00080E796E093838283758364830E94BD326B
:103DF0008DB79EB706960FB6F8949EBF0FBE8DBFC7
:103E0000C601B70145E756E095010E94C71E1F9104
:103E10000F91FF90EF90DF90CF90BF90AF900895FB
:103E20000F931F93CF93DF938C01EC01C159DF4FA8
:103E3000888199818F7B99838883C80166E876E0C1
:103E40004FE356E021E030E00E94D51E882319F0B0
:103E5000823051F404C088819981806403C08881D4
:103E6000998180629983888301591F4FF80180816D
:103E70009181A6E096958795AA95E1F78095817046
:103E8000DF91CF911F910F9108950F931F93CF93BF
:103E9000DF938C01EC01C159DF4F888199818F7DBF
:103EA00099838883C80166E976E04FE356E021E014
:103EB00030E00E94D51E882311F0823029F48881D9
:103EC000998180629983888301591F4FF80180810D
:103ED0009181B5E096958795BA95E1F780958170C7
:103EE000DF91CF911F910F91089520E030E00E9463
:103EF000D51E0895EF92FF920F931F93CF93DF93F8
:103F00007C018B018EE190E061E070E00E948C31D9
:103F1000EC01009711F48FEFB6C0F701E159FF4FA4
:103F2000808191819F7D9183808390E001C09F5F1C
:103F3000F801E90FF11D80818D30C9F7923049F108
:103F4000933009F44DC0913009F07AC08DB79EB717
:103F500008970FB6F8949EBF0FBE8DBFEDB7FEB7A2
:103F60003196ADB7BEB71296DC93CE93119786ED1E
:103F700096E0938382838DED96E095838483D801C8
:103F80008C91868317820E94BD32EDB7FEB73896BA
:103F900052C08DB79EB70A970FB6F8949EBF0FBE5A
:103FA0008DBFEDB7FEB73196ADB7BEB71296DC93B5
:103FB000CE93119789EE96E0938382838DED96E000
:103FC00095838483D8018C918683178211968C9176
:103FD000808711860E94BD32EDB7FEB73A962BC09E
:103FE0008DB79EB70C970FB6F8949EBF0FBE8DBFCE
:103FF000EDB7FEB73196ADB7BEB71296DC93CE9350
:10400000119782EF96E0938382838DED96E09583FE
:104010008483D8018C918683178211968C91119795
:104020008087118612968C91828713860E94BD32FA
:10403000EDB7FEB73C960FB6F894FEBF0FBEEDBFCE
:10404000C701BE014FE356E00E94751F182FCE0135
:104050000E945532112311F0123041F4F701E15959
:10406000FF4F808191819062918380838FE690E001
:10407000E80EF91ED70111962C91822F8295869514
:10408000877080958170DF91CF911F910F91FF9084
:10409000EF900895CF93DF93EC01C159DF4F288152
:1040A0003981277F398328836DEF76E04FE356E02F
:1040B0000E94751F282F882329F08881998122303A
:1040C00041F402C08881998188609983888380E067
:1040D00007C023E0969587952A95E1F78095817032
:1040E000DF91CF910895CF93DF93EC01C159DF4F5A
:1040F000288139813B7F398328836DE577E04FE361
:1041000056E00E94751F882311F0823039F48881AF
:10411000998194609983888380E006C02981822FE9
:104120008695869580958170DF91CF910895CF9384
:10413000DF93EC01C159DF4F288139813F7E3983FC
:1041400028836CE677E04FE356E00E94751F8823D2
:1041500011F0823039F48881998190619983888344
:1041600080E006C02981822F82958F7080958170B2
:10417000DF91CF910895EF92FF920F931F93CF930A
:10418000DF937C0189E190E061E070E00E948C3176
:10419000EC01009711F48FEF4FC0870101591F4FB9
:1041A000D8018D919C9111979D7F8D939C9300D008
:1041B00000D000D0EDB7FEB73196ADB7BEB71296BE
:1041C000DC93CE93119785E797E09383828383E80E
:1041D00097E0958384830E94BD32EDB7FEB7369693
:1041E0000FB6F894FEBF0FBEEDBFC701BE014FE38F
:1041F00056E00E94751FF82ECE010E945532FF2016
:1042000021F0F2E0FF1689F408C0D8018D919C914D
:10421000119792608D939C9306C0F80180819181E3
:1042200092609183808380E007C0D80111962C9121
:10423000822F869580958170DF91CF911F910F918C
:10424000FF90EF900895CF92DF92EF92FF920F933D
:104250001F93CF93DF937C016B0189E190E061E0D4
:1042600070E00E948C31EC01009711F48FEF58C080
:10427000870101591F4FD8018D919C9111979E7F05
:104280008D939C93EDB7FEB73C970FB6F894FEBFA5
:104290000FBEEDBF3196ADB7BEB71296DC93CE938D
:1042A00011978EE996E0938382838FE897E0958358
:1042B000848382E290E097838683D186C086938749
:1042C00082870E94BD32EDB7FEB73C960FB6F894D8
:1042D000FEBF0FBEEDBFC701BE014FE356E00E9417
:1042E000751FF82ECE010E945532FF2021F0F2E01A
:1042F000FF1689F408C0D8018D919C9111979160A7
:104300008D939C9306C0F801808191819160918387
:10431000808380E005C0D80111968C9180958170D2
:10432000DF91CF911F910F91FF90EF90DF90CF9091
:104330000895CF92DF92FF920F931F93CF93DF9355
:104340006C0184E690E061E070E00E948C31EC0149
:10435000009711F48FEF94C0860101591F4FD801C7
:104360008D919C9111978F778D939C93EDB7FEB7AC
:10437000B4970FB6F894FEBF0FBEEDBF3196ADB740
:10438000BEB71296DC93CE9311978AE997E0938398
:10439000828381EC97E09583848322E230E0378347
:1043A00026838BEC97E09187808733872287358738
:1043B000248780ED97E097878687318B208B338B1E
:1043C000228B8CED97E0958B848B378B268B318FEE
:1043D000208F938F828F358F248F378F268F8DED8F
:1043E00097E091A380A333A322A30E94BD32EDB72F
:1043F000FEB7B4960FB6F894FEBF0FBEEDBFC60170
:10440000BE014FE356E00E94751FF82ECE010E94B8
:104410005532FF2021F0F2E0FF1681F408C0D801E8
:104420008D919C91119780688D939C9328C0F80181
:104430008081918180689183808321C0C6010E9420
:10444000BB208823E1F0C6010E9473208823B9F0C5
:10445000C6010E949720882391F0C60166E875E0A6
:104460000E942321882359F0D8018D919C91880FB7
:10447000892F881F990B91958095817001C080E0EC
:10448000DF91CF911F910F91FF90DF90CF90089512
:10449000AF92BF92CF92DF92EF92FF920F931F9352
:1044A000CF93DF937C016B015A01122F88E290E0D9
:1044B00061E070E00E948C31EC01009711F48FEF05
:1044C000F3C0F701E159FF4F80819181977F91837C
:1044D0008083112319F01130C1F539C08DB79EB713
:1044E00044970FB6F8949EBF0FBE8DBFEDB7FEB7D1
:1044F0003196ADB7BEB71296DC93CE9311978FE687
:1045000098E09383828384E898E09583848317827C
:10451000168282E290E091878087D386C286958753
:104520008487B786A6868DE090E0918B808B8AE0A9
:1045300090E0938B828B0E94BD328DB79EB74496DC
:104540000FB6F8949EBF0FBE8DBFDD242BC0ADB754
:10455000BEB71E970FB6F894BEBF0FBEADBFEDB786
:10456000FEB731961296DC93CE93119780E998E0CE
:104570009383828384E898E09583848381E090E04C
:1045800097838683B186A0868DE090E093878287AB
:104590008AE090E0958784870E94BD328DB79EB7F0
:1045A0000E96CECF81E00E94C417CE0161E00E943A
:1045B0006B1881E00E946517892B09F080C00E946A
:1045C0005B15685B7B408040904008F078C00E949B
:1045D0005B15EFCFD394B3E0DB1621F7CE010E9439
:1045E0005532113009F05FC081E00E9489176EE1F9
:1045F00070E080E090E00E947315F701E851FF4FF2
:10460000108289EE90E0E80EF91ED7011D921D92EE
:104610007D011C9285E19FEFE80EF91EEF0110E08D
:1046200088818D3009F461C0143009F45EC081E0E6
:104630000E946517892B09F458C081E00E948917F0
:1046400089931F5FEDCF81E00E94C4178EE998E047
:1046500061E00E946B1810E004C061E00E945A18EB
:104660001F5FF701E10FF11DE851FF4F80818D3091
:10467000A1F761E00E945A188AE061E00E945A188E
:1046800081E00E946517892BC1F50E945B15685B6C
:104690007B408040904088F50E945B15F1CFD39419
:1046A000B3E0DB1681F680E0DF91CF911F910F918F
:1046B000FF90EF90DF90CF90BF90AF9008956AE0A9
:1046C00070E080E090E00E947315C7016AEA78E02C
:1046D00044E150E020E030E000E010E00E94391AB0
:1046E000182F813009F076CF79CF62E370E080E057
:1046F00090E00E947315DD24A6CF6AE070E080E0B0
:1047000090E00E947315C7016FE376E044E150E04A
:1047100020E030E00AE010E00E94391A813009F010
:10472000BECFC2CFFF920F931F93CF93DF93EC01C5
:10473000CE57DF4F6883C258D0408E0101591F4FBA
:10474000F801808191818E7F91838083613079F13E
:10475000613030F0623039F16330E9F1FF245CC040
:1047600086E061E00E94B01686E061E00E94CE160D
:104770008AE261E00E94B0168AE261E00E94CE16F1
:1047800060ED77E080E090E00E9473158AE260E0DF
:104790000E94CE1664EF71E080E090E00E947315F5
:1047A000FF24F39439C0CE0169ED78E003C0CE0157
:1047B00061EE78E04FE356E00E94751FF82E8823E3
:1047C00019F0F2E08F1741F5F80180819181816045
:1047D0009183808321C086E061E00E94B01686E06C
:1047E00060E00E94CE16CE0169ED78E04FE356E01E
:1047F0000E94751FF82E882319F0F2E08F1731F40C
:10480000F8018081918181609183808364EF71E000
:1048100080E090E00E9473158F2DDF91CF911F9162
:104820000F91FF900895EF92FF920F931F938C01C9
:10483000B0E8EB2EF12CE80EF91E80E096E9F701C6
:10484000918380838AE190E10E94F02BF7016081DF
:10485000718180E090E00D571F4FF80140810E9468
:1048600023191F910F91FF90EF900895CF93DF933D
:10487000EC0161E070E080E090E00E94B21462E040
:1048800070E080E090E00E94B21480917A0A882360
:1048900031F488E69AE061E041E00E946D07CE01C4
:1048A0000E941324CE0160E00E949223DF91CF91F9
:1048B0000895FC0180EC92E1A0E0B0E08083918358
:1048C000A283B38381E08483E755FF4F22E02083F6
:1048D000E95AF0401782168280E890E0918780873D
:1048E000128623878CE599E095AB84AB82E699E04C
:1048F00097AB86AB89E699E091AF80AF8DE699E002
:1049000093AF82AF80E799E095AF84AF82E799E0FB
:1049100097AF86AFE05CFF4F8CE799E0819391936E
:1049200087E899E081939193108208958DE39DE04B
:104930000E9459240895EF92FF921F93CF93DF9323
:104940007B0110E0C1E0D0E006C0F701EC0FFD1FD5
:104950008081182721968AE190E1B7010E94A92A57
:104960000397C817D9078CF3812FDF91CF911F913F
:10497000FF90EF9008958F929F92AF92BF92CF9247
:10498000DF92EF92FF920F931F93CF93DF937C01FF
:104990002CEAC22ED12CC80ED91EB6010E949B242F
:1049A000E701CC5BDF4F88838AE190E1B6010E948A
:1049B000A92A6C011881C12FD0E0BE016F70707000
:1049C000882777FD8095982F0E94FF2F20E030E008
:1049D00040E050E00E94602FF701EC0DFD1D012F1B
:1049E00002950F70882339F4E555FF4F80E38083EB
:1049F000005D02932DC0E655FF4F005D019300530B
:104A00006F01BE01882777FD8095982F0E94FF2FA8
:104A10004B015C01602F70E0882777FD8095982F0F
:104A20000E94FF2F20E030E040E851EC0E94B330BC
:104A30009B01AC01C501B4010E94FC2E20E030E0D6
:104A400040E452E40E94FC2E0E94CC2FF6016083C9
:104A5000DF91CF911F910F91FF90EF90DF90CF905A
:104A6000BF90AF909F908F9008950F931F938C01EC
:104A70008AE190E10E94092CF801608171818281B4
:104A8000938144810E9423191F910F9108958F9261
:104A90009F92AF92BF92CF92DF92EF92FF920F93CD
:104AA0001F93CF93DF93EC015B018E819F818E7FFB
:104AB0009F838E836115710519F470EAA72EB12CBE
:104AC00081E00E94C4176CEA862E912C8C0E9D1EEC
:104AD000F40180E090E011920196803A9105D9F7B7
:104AE00058EEE52E53E0F52E012D112D8C810E94FC
:104AF0006517892B89F4E114F1040105110589F08A
:104B000061E070E080E090E00E9473150894E10895
:104B1000F10801091109EACFE114F10401051105B9
:104B200081F48E819F8181609F838E834BE8842EE8
:104B300049E0942E50C08C810E9465171816190602
:104B4000D4F78C810E948917F82E84E2F81699F721
:104B5000C455DF4FF882CC5AD0403DEAC32ED12C49
:104B6000CC0EDD1E01E010E01AC08C810E9465179A
:104B700018161906A4F48C810E948917F82EEAE20F
:104B80008E1741F0F4E28F1729F00A151B0514F473
:104B9000F60180830F5F1F4F0894C11CD11C0130A8
:104BA000110519F3FAE2FF1649F084E2F81631F024
:104BB0000A151B05D4F2EAE0FE1619F00A151B05CA
:104BC00029F4C00FD11FC555DF4F04C0C00FD11F3E
:104BD000C455DF4F1882C401DF91CF911F910F910F
:104BE000FF90EF90DF90CF90BF90AF909F908F900D
:104BF00008950F931F938C01FC01628783E261E0AB
:104C00000E94B016F8018285882319F0813041F4A2
:104C100003C083E261E002C083E260E00E94CE163E
:104C20001F910F910895AF92BF92CF92DF92EF92B2
:104C3000FF920F931F93DF93CF93CDB7DEB7E0972B
:104C40000FB6F894DEBF0FBECDBF7C018B01DE0135
:104C50005196E4E4FAE080E201900D928150E1F790
:104C6000DE011196E4E3FAE080E101900D928150BB
:104C7000E1F78AE090E061E070E00E948C315C0135
:104C8000009711F41FEF12C2D70119961C930E93CF
:104C900018970031110509F484C101311105A8F4F8
:104CA0000230110509F4FCC00330110528F401306D
:104CB000110509F0F5C11EC00430110509F41DC12C
:104CC0000830110509F0ECC142C10034110509F4A6
:104CD000BCC10134110528F40032110509F0E0C10E
:104CE0008AC10038110509F4A6C00050114009F02E
:104CF000D7C165C0870104551F4FEDB7FEB7389780
:104D00000FB6F894FEBF0FBEEDBF3196ADB7BEB77C
:104D100012961C930E93119784EA99E093838283F1
:104D2000D7012D913D914D915C912483358346832C
:104D300057830E94BD32EDB7FEB738960FB6F89490
:104D4000FEBF0FBEEDBFD70114968C910E94C41711
:104D5000C801F70164810E946B188DE0D701149699
:104D60006C910E945A188AE0F70164810E945A18D7
:104D70006AE070E080E090E00E947315D70114961D
:104D80008C910E94C4176AE070E080E090E00E947D
:104D90007315F70184810E946517892B09F480C17E
:104DA000D70114968C910E948917F5018083843273
:104DB00009F476C18153893208F472C173C1D701F5
:104DC00014968C910E94C4178E010F5F1F4F41E112
:104DD000C42ED12CCC0EDD1EF80181918F01D7019C
:104DE00014966C910E945A180C151D05A9F764E6DB
:104DF00070E080E090E00E947315F70184810E94CA
:104E00006517892B89F085013AE0C32ED12CCA0C95
:104E1000DB1CD70114968C910E948917F8018193AD
:104E20008F01EC15FD05A9F7D50115968C91863AF1
:104E300009F036C137C181E0898F8B8F8D8F8F8FBD
:104E400089A385E68EA78E010F5E1F4F21E3C22E38
:104E5000D12CCC0EDD1EF80181918F0161E00E9402
:104E60005A180C151D05B9F76AE070E080E090E073
:104E70000E947315C70164E670E00E9447258CEA22
:104E800090E0E80EF91E8AE190E1B7014CE20E9441
:104E9000B42A8AE190E16BEB79E00E94B432FEC063
:104EA0008E010F5E1F4F91E3C92ED12CCC0EDD1E5B
:104EB000D8018D918D0161E00E945A180C151D05D5
:104EC000B9F76AE070E080E090E00E947315C701D6
:104ED00064E670E00E944725ECEAF0E0EE0EFF1E6B
:104EE0008AE190E1B7014CE20E94B42A8AE190E1A4
:104EF0006BEB79E00E94B432D1C01F8A81E0898FC8
:104F00008E010F5E1F4F81E3C82ED12CCC0EDD1E0B
:104F1000D8018D918D0161E00E945A180C151D0574
:104F2000B9F7C70164E670E00E944725ECEAF0E0BB
:104F3000EE0EFF1E8AE190E1B7014CE20E94B42A16
:104F40008AE190E162EC79E00E94B432A7C01F8A46
:104F500081E08B8F8E010F5E1F4FB1E3CB2ED12CE2
:104F6000CC0EDD1ED8018D918D0161E00E945A1892
:104F70000C151D05B9F7C70164E670E00E944725CE
:104F8000ECEAF0E0EE0EFF1E8AE190E1B7014CE2A0
:104F90000E94B42A8AE190E169EC79E00E94B4327F
:104FA0007DC01F8A81E08D8F8E010F5E1F4FA1E3B0
:104FB000CA2ED12CCC0EDD1ED8018D918D0161E061
:104FC0000E945A180C151D05B9F7C70164E670E078
:104FD0000E944725ECEAF0E0EE0EFF1E8AE190E128
:104FE000B7014CE20E94B42A8AE190E160ED79E0D9
:104FF0000E94B43253C01F8A81E08F8F8E010F5EF2
:105000001F4FF1E3CF2ED12CCC0EDD1ED8018D9198
:105010008D0161E00E945A180C151D05B9F7C701F2
:1050200064E670E00E944725ECEAF0E0EE0EFF1E19
:105030008AE190E1B7014CE20E94B42A8AE190E152
:1050400067ED79E00E94B43229C01F8A81E089A30C
:105050008E010F5E1F4FE1E3CE2ED12CCC0EDD1E54
:10506000D8018D918D0161E00E945A180C151D0523
:10507000B9F7C70164E670E00E944725ECEAF0E06A
:10508000EE0EFF1E8AE190E1B7014CE20E94B42AC5
:105090008AE190E16EED79E00E94B432009711F060
:1050A00010E001C011E0C5010E945532812FE09649
:1050B0000FB6F894DEBF0FBECDBFCF91DF911F9129
:1050C0000F91FF90EF90DF90CF90BF90AF90089539
:1050D0002F923F924F925F926F927F928F929F9208
:1050E000AF92BF92CF92DF92EF92FF920F931F93F6
:1050F000DF93CF9300D000D0CDB7DEB73C012B01BA
:105100001A013A8329831C830B8329EA30E0620E5B
:10511000731ED3018C91E7E5FFEF6E0E7F1E88238F
:1051200049F0C3010E94352568EB7BE080E090E008
:105130000E947315830104551F4F2DB73EB72451AC
:1051400030400FB6F8943EBF0FBE2DBFEDB7FEB78F
:105150003196ADB7BEB712961C930E9311978FEE92
:1051600099E0938382835582448237822682298103
:105170003A81318720878B819C8193878287F5864E
:10518000E486D786C686B18AA08A938A828A0E94DC
:10519000BD32ADB7BEB754960FB6F894BEBF0FBEC2
:1051A000ADBFC3010E94BB2481E00E94C417C801A7
:1051B00061E00E946B188DE061E00E945A188AE05D
:1051C00061E00E945A180E945B157B018C01C301AB
:1051D00061E070E00E941326882319F50E945B1598
:1051E0006E197F09800B910B685B7B40804090407B
:1051F000C0F40E945B15EBCFC30160E071E00E9438
:105200001326882399F40E945B156E197F09800B81
:10521000910B685B7B408040904040F40E945B159E
:10522000EBCF0E945B157B018C01E6CF81E00E94F1
:10523000C41729EA30E0620E731ED3011C920F904E
:105240000F900F900F90CF91DF911F910F91FF90D2
:10525000EF90DF90CF90BF90AF909F908F907F9016
:105260006F905F904F903F902F9008958F929F92F4
:10527000AF92BF92CF92DF92EF92FF920F931F9364
:10528000FC0166AD77ADE05CFF4F4191519120810B
:105290003181E254F04004A915A9E6A8F7A8C0ACF2
:1052A000D1ACA2ACB3AC84AC95ACCF010E94682861
:1052B0001F910F91FF90EF90DF90CF90BF90AF9034
:1052C0009F908F9008950F931F938C0160E00E9430
:1052D000F925C8010E943525C8010E9436291F9171
:1052E0000F9108951092F80F1092F90F1092FC0F81
:1052F0001092FE0F10920110089510921910089547
:105300000F93FC01CB01BA012AE030E040E050E00D
:1053100000810E9481180F9108950F931F938C01B3
:105320008DE0F80160810E945A188AE0F8016081DE
:105330000E945A181F910F910895EF92FF920F93B8
:105340001F93CF93DF93EC017A018B0177FF0CC0A1
:105350008DE268810E945A1810950095F094E094AF
:10536000E11CF11C011D111DC801B7012AE030E04C
:1053700040E050E008810E948118DF91CF911F9199
:105380000F91FF90EF900895AB01662757FD609550
:10539000762F0E949D2908950F931F938C01AB01D6
:1053A000662757FD6095762F0E949D29C8010E94AF
:1053B0008D291F910F9108950F931F93FC01DA011E
:1053C0008B012115310529F4842F60810E945A1820
:1053D0000EC02A30310519F40E949D2908C030E022
:1053E00040E050E0BD01C80100810E9481181F917A
:1053F0000F910895FC01CB0160810E946B18089504
:105400009F92AF92BF92CF92DF92EF92FF920F9353
:105410001F93CF93DF93EC017A018B01922ECB0186
:10542000BA0120E030E040E050E00E94602F882385
:1054300044F48DE268810E945A1817FB109517F901
:10544000109520E030E040E05FE3AA240BC0CA01E1
:10545000B90120E030E040E251E40E94642F9B015A
:10546000AC01A394A91498F3C801B7010E94FC2EC3
:105470005B016C010E94D12F7B018C01CE01B80130
:10548000A7010E948029992029F08FE19AE0688184
:105490000E946B18C801B7010E94FD2F9B01AC014F
:1054A000C601B5010E94FB2E20C020E030E040E2A2
:1054B00051E40E94B3307B018C010E94CC2F5B0130
:1054C0006C01CC24B7FCC094DC2CCE01B601A50144
:1054D0000E949D29C601B5010E94FF2F9B01AC01CE
:1054E000C801B7010E94FB2E9A949920F1F6DF9132
:1054F000CF911F910F91FF90EF90DF90CF90BF90D1
:10550000AF909F9008952AE00E94002A08950F937B
:105510001F938C010E94832AC8010E948D291F912C
:105520000F9108950F931F938C01CB01F8016081B7
:105530000E946B18C8010E948D291F910F91089538
:10554000FC0160E076E980E090E040810E94231950
:105550000895FB0120E030E002C02F5F3F4F8191B2
:105560008823D9F7C90108950F931F93CF93DF9331
:10557000EC01042FFB0140E050E002C04F5F5F4FA1
:1055800081918823D9F7A0E0B0E013C011922F5F7A
:105590003F4F20313105D1F71196A431B10549F4BF
:1055A000DB01119620E030E080E090E060E070E008
:1055B00024C0FD0184E0EE0FFF1F8A95E1F7EC0F98
:1055C000FD1F20E030E0E2CF1E911196101779F018
:1055D000FC01E295F295F07FFE27E07FFE27E20FC7
:1055E000F31FEC0FFD1F10832F5F3F4F03C0019689
:1055F00020E030E06F5F7F4F11966417750724F34A
:10560000DF91CF911F910F9108952F923F924F926A
:105610005F926F927F928F929F92AF92BF92CF9242
:10562000DF92EF92FF920F931F93DF93CF93CDB74B
:10563000DEB769970FB6F894DEBF0FBECDBF3A0153
:105640004B011901198F088FCB01BA0120E030E01E
:1056500040E050E00E94602F87FD02C01F8A06C014
:1056600097FA909497F8909421E02F8BC401B3019E
:105670000E94CC2F5B016C01CE0101969E8B8D8B1D
:1056800044245524C601B5012AE030E040E050E052
:105690000E9457317B018C01C601B5012AE030E040
:1056A00040E050E00E945731C901DA015C016D0110
:1056B000ED89FE89E192F192FE8BED8BC201089497
:1056C000411C511CA114B104C104D104D9F69C01A0
:1056D000FF89FF2319F440E050E005C08DE2F1019D
:1056E000808341E050E0C901880F991FFE01319687
:1056F000E80FF91FD101A40FB51FBE016150704022
:105700008081805D8D933297E617F707C9F72901ED
:105710000894411C511C440E551E8101040D151D99
:105720008EE2F8018083C401B3010E94CC2F882748
:1057300077FD8095982F0E94FF2F9B01AC01C4013B
:10574000B3010E94FB2E380111E0812E912C20C064
:1057500020E030E040E251E40E94B3305B016C0194
:105760000E94CC2F7B018C01B701882777FD8095A3
:10577000982F0E94FF2F9B01AC01C601B5010E942A
:10578000FB2EF0E3EF0EF301E0820894811C911CE4
:10579000F401E40DF51D0894611C711C288D398DF0
:1057A00028153905ACF6E20DF31D108269960FB687
:1057B000F894DEBF0FBECDBFCF91DF911F910F9147
:1057C000FF90EF90DF90CF90BF90AF909F908F9021
:1057D0007F906F905F904F903F902F900895089525
:1057E0008FE261E00E94B01684E261E00E94B01690
:1057F00085E261E00E94B0168FE261E00E94CE1661
:1058000084E261E00E94CE1685E261E00E94CE163D
:1058100008958FE261E00E94B01684E261E00E9488
:10582000B01685E261E00E94B0168FE261E00E944E
:10583000CE1684E260E00E94CE1685E261E00E940E
:10584000CE16089510925A1110925C11089581E0BD
:105850008093A311609380111092A1111092A21154
:10586000089581E08093A311609380111092A1119B
:105870001092A211089580917F1190917E11891B41
:10588000089590917E1180917F11981710F080E01B
:105890000895E92FF0E0E25AFE4E80819F5F9093D9
:1058A0007E11089508950F931F938C010E945E2D21
:1058B000F80110821F910F910895DF93CF930F92FB
:1058C000CDB7DEB769838091A311882389F08091D9
:1058D000A211803290F48091A111E82FF0E0EF57EF
:1058E000FE4E60838F5F8093A1118093A21105C04B
:1058F000CE01019661E00E94432D0F90CF91DF9180
:1059000008950E945D2C08958091801161E871E1F5
:105910004091A21121E00E94152D1092A111109228
:10592000A2111092A31108951F93142F413208F071
:1059300010E2862F6EE571E1412F0E94E92C109252
:105940007E1110937F111F9108950E94942C089549
:105950000F931F938C0110927E1110927E11109262
:105960007F111092A1111092A1111092A2110E9408
:10597000BF2C81E0F80180831F910F910895109250
:10598000A511589A599A8091B9008E7F8093B900D9
:105990008091B9008D7F8093B90080E28093B80038
:1059A00085E48093BC00EBEAF1E1119281E1EB3CEC
:1059B000F807D9F7EDECF1E1119281E1ED3EF8073E
:1059C000D9F7EFEEF1E1119282E1EF30F807D9F764
:1059D0000895982F413210F081E008958091A5112B
:1059E0008823E1F781E08093A5111092CB114093B9
:1059F000CC11990F91609093A61185EE8093BC0015
:105A00008091A5118130E1F320E030E00AC0FB0174
:105A1000E20FF31FD901A555BE4E8C9180832F5FF5
:105A20003F4F2417A0F380E008951F93582F122FA3
:105A3000413210F081E025C08091A5118823E1F763
:105A400082E08093A5111092CB114093CC11ABEA68
:105A5000B1E1FB0102C081918D938E2F861B8417CB
:105A6000D0F3852F90E0880F991F8093A61185EEC3
:105A70008093BC00112321F08091A5118230E1F3C5
:105A800080E01F910895482F613210F081E0089561
:105A90008091A511843011F082E008956093EE1199
:105AA000ADECB1E1842F9C01F90102C081918D938D
:105AB0008E2F841B8617D0F380E00895589859984C
:105AC000E9EBF0E080818160808380818260808367
:105AD000ECEBF0E08081806880838081806180834E
